{
 "cells": [
  {
   "cell_type": "code",
   "execution_count": 10,
   "metadata": {},
   "outputs": [],
   "source": [
    "############## PLEASE RUN THIS CELL FIRST! ###################\n",
    "\n",
    "# import everything and define a test runner function\n",
    "from importlib import reload\n",
    "from helper import run\n",
    "import ecc\n",
    "import helper\n",
    "import script\n",
    "import tx"
   ]
  },
  {
   "cell_type": "markdown",
   "metadata": {},
   "source": [
    "### Exercise 1\n",
    "\n",
    "Write the version parsing part of the `parse` method that we've defined. To do this properly, you'll have to convert 4 bytes into a Little-Endian integer.\n",
    "\n",
    "#### Make [this test](/edit/code-ch05/tx.py) pass: `tx.py:TxTest:test_parse_version`"
   ]
  },
  {
   "cell_type": "code",
   "execution_count": 11,
   "metadata": {},
   "outputs": [
    {
     "name": "stderr",
     "output_type": "stream",
     "text": [
      "E\n",
      "======================================================================\n",
      "ERROR: setUpClass (tx.TxTest)\n",
      "----------------------------------------------------------------------\n",
      "Traceback (most recent call last):\n",
      "  File \"/Users/vovapasko/hobby/programmingbitcoin/code-ch05/tx.py\", line 252, in setUpClass\n",
      "    TxFetcher.load_cache(cls.cache_file)\n",
      "  File \"/Users/vovapasko/hobby/programmingbitcoin/code-ch05/tx.py\", line 61, in load_cache\n",
      "    tx = Tx.parse(BytesIO(raw))\n",
      "  File \"/Users/vovapasko/hobby/programmingbitcoin/code-ch05/tx.py\", line 117, in parse\n",
      "    txins_stream = BytesIO(bytes.fromhex(str(num_inputs)))\n",
      "ValueError: non-hexadecimal number found in fromhex() arg at position 1\n",
      "\n",
      "----------------------------------------------------------------------\n",
      "Ran 0 tests in 0.005s\n",
      "\n",
      "FAILED (errors=1)\n"
     ]
    }
   ],
   "source": [
    "# Exercise 1\n",
    "\n",
    "reload(tx)\n",
    "run(tx.TxTest(\"test_parse_version\"))"
   ]
  },
  {
   "cell_type": "code",
   "execution_count": 5,
   "metadata": {},
   "outputs": [
    {
     "name": "stdout",
     "output_type": "stream",
     "text": [
      "3045022100ed81ff192e75a3fd2304004dcadb746fa5e24c5031ccfcf21320b0277457c98f02207a986d955c6e0cb35d446a89d3f56100f4d7f67801c31967743a9c8e10615bed01 0349fc4e631e3624a545de3f89f5d8684c7b8138bd94bdd531d2e213bf016b278a\n"
     ]
    }
   ],
   "source": [
    "from io import BytesIO\n",
    "from script import Script\n",
    "script_hex = ('6b483045022100ed81ff192e75a3fd2304004dcadb746fa5e24c5031ccfcf21320b0277457c98f02207a986d955c6e0cb35d446a89d3f56100f4d7f67801c31967743a9c8e10615bed01210349fc4e631e3624a545de3f89f5d8684c7b8138bd94bdd531d2e213bf016b278a')\n",
    "stream = BytesIO(bytes.fromhex(script_hex))\n",
    "script_sig = Script.parse(stream)\n",
    "print(script_sig)"
   ]
  },
  {
   "cell_type": "markdown",
   "metadata": {},
   "source": [
    "### Exercise 2\n",
    "\n",
    "Write the inputs parsing part of the `parse` method in `Tx` and the `parse` method for `TxIn`.\n",
    "\n",
    "#### Make [this test](/edit/code-ch05/tx.py) pass: `tx.py:TxTest:test_parse_inputs`"
   ]
  },
  {
   "cell_type": "code",
   "execution_count": 15,
   "metadata": {},
   "outputs": [
    {
     "name": "stdout",
     "output_type": "stream",
     "text": [
      "> \u001b[0;32m/Users/vovapasko/hobby/programmingbitcoin/code-ch05/tx.py\u001b[0m(125)\u001b[0;36mparse\u001b[0;34m()\u001b[0m\n",
      "\u001b[0;32m    123 \u001b[0;31m        \u001b[0;31m# locktime is an integer in 4 bytes, little-endian\u001b[0m\u001b[0;34m\u001b[0m\u001b[0;34m\u001b[0m\u001b[0;34m\u001b[0m\u001b[0m\n",
      "\u001b[0m\u001b[0;32m    124 \u001b[0;31m        \u001b[0;31m# return an instance of the class (see __init__ for args)\u001b[0m\u001b[0;34m\u001b[0m\u001b[0;34m\u001b[0m\u001b[0;34m\u001b[0m\u001b[0m\n",
      "\u001b[0m\u001b[0;32m--> 125 \u001b[0;31m        \u001b[0;32mreturn\u001b[0m \u001b[0mcls\u001b[0m\u001b[0;34m(\u001b[0m\u001b[0mversion\u001b[0m\u001b[0;34m,\u001b[0m \u001b[0mtxins\u001b[0m\u001b[0;34m,\u001b[0m \u001b[0;32mNone\u001b[0m\u001b[0;34m,\u001b[0m \u001b[0;32mNone\u001b[0m\u001b[0;34m)\u001b[0m\u001b[0;34m\u001b[0m\u001b[0;34m\u001b[0m\u001b[0m\n",
      "\u001b[0m\u001b[0;32m    126 \u001b[0;31m\u001b[0;34m\u001b[0m\u001b[0m\n",
      "\u001b[0m\u001b[0;32m    127 \u001b[0;31m    \u001b[0;31m# tag::source6[]\u001b[0m\u001b[0;34m\u001b[0m\u001b[0;34m\u001b[0m\u001b[0;34m\u001b[0m\u001b[0m\n",
      "\u001b[0m\n",
      "ipdb> do_list\n",
      "*** NameError: name 'do_list' is not defined\n",
      "ipdb> do_list()\n",
      "*** NameError: name 'do_list' is not defined\n",
      "ipdb> print(tx)\n",
      "*** NameError: name 'tx' is not defined\n",
      "ipdb> print(txins)\n",
      "*** AttributeError: 'int' object has no attribute 'hex'\n",
      "--KeyboardInterrupt--\n",
      "\n",
      "KeyboardInterrupt: Interrupted by user\n",
      "> \u001b[0;32m/Users/vovapasko/hobby/programmingbitcoin/code-ch05/tx.py\u001b[0m(125)\u001b[0;36mparse\u001b[0;34m()\u001b[0m\n",
      "\u001b[0;32m    123 \u001b[0;31m        \u001b[0;31m# locktime is an integer in 4 bytes, little-endian\u001b[0m\u001b[0;34m\u001b[0m\u001b[0;34m\u001b[0m\u001b[0;34m\u001b[0m\u001b[0m\n",
      "\u001b[0m\u001b[0;32m    124 \u001b[0;31m        \u001b[0;31m# return an instance of the class (see __init__ for args)\u001b[0m\u001b[0;34m\u001b[0m\u001b[0;34m\u001b[0m\u001b[0;34m\u001b[0m\u001b[0m\n",
      "\u001b[0m\u001b[0;32m--> 125 \u001b[0;31m        \u001b[0;32mreturn\u001b[0m \u001b[0mcls\u001b[0m\u001b[0;34m(\u001b[0m\u001b[0mversion\u001b[0m\u001b[0;34m,\u001b[0m \u001b[0mtxins\u001b[0m\u001b[0;34m,\u001b[0m \u001b[0;32mNone\u001b[0m\u001b[0;34m,\u001b[0m \u001b[0;32mNone\u001b[0m\u001b[0;34m)\u001b[0m\u001b[0;34m\u001b[0m\u001b[0;34m\u001b[0m\u001b[0m\n",
      "\u001b[0m\u001b[0;32m    126 \u001b[0;31m\u001b[0;34m\u001b[0m\u001b[0m\n",
      "\u001b[0m\u001b[0;32m    127 \u001b[0;31m    \u001b[0;31m# tag::source6[]\u001b[0m\u001b[0;34m\u001b[0m\u001b[0;34m\u001b[0m\u001b[0;34m\u001b[0m\u001b[0m\n",
      "\u001b[0m\n",
      "--KeyboardInterrupt--\n",
      "\n",
      "KeyboardInterrupt: Interrupted by user\n",
      "> \u001b[0;32m/Users/vovapasko/hobby/programmingbitcoin/code-ch05/tx.py\u001b[0m(125)\u001b[0;36mparse\u001b[0;34m()\u001b[0m\n",
      "\u001b[0;32m    123 \u001b[0;31m        \u001b[0;32mreturn\u001b[0m \u001b[0mcls\u001b[0m\u001b[0;34m(\u001b[0m\u001b[0mversion\u001b[0m\u001b[0;34m,\u001b[0m \u001b[0mtxins\u001b[0m\u001b[0;34m,\u001b[0m \u001b[0;32mNone\u001b[0m\u001b[0;34m,\u001b[0m \u001b[0;32mNone\u001b[0m\u001b[0;34m)\u001b[0m\u001b[0;34m\u001b[0m\u001b[0;34m\u001b[0m\u001b[0m\n",
      "\u001b[0m\u001b[0;32m    124 \u001b[0;31m\u001b[0;34m\u001b[0m\u001b[0m\n",
      "\u001b[0m\u001b[0;32m--> 125 \u001b[0;31m    \u001b[0;31m# tag::source6[]\u001b[0m\u001b[0;34m\u001b[0m\u001b[0;34m\u001b[0m\u001b[0;34m\u001b[0m\u001b[0m\n",
      "\u001b[0m\u001b[0;32m    126 \u001b[0;31m    \u001b[0;32mdef\u001b[0m \u001b[0mserialize\u001b[0m\u001b[0;34m(\u001b[0m\u001b[0mself\u001b[0m\u001b[0;34m)\u001b[0m\u001b[0;34m:\u001b[0m\u001b[0;34m\u001b[0m\u001b[0;34m\u001b[0m\u001b[0m\n",
      "\u001b[0m\u001b[0;32m    127 \u001b[0;31m        \u001b[0;34m'''Returns the byte serialization of the transaction'''\u001b[0m\u001b[0;34m\u001b[0m\u001b[0;34m\u001b[0m\u001b[0m\n",
      "\u001b[0m\n",
      "--KeyboardInterrupt--\n",
      "\n",
      "KeyboardInterrupt: Interrupted by user\n",
      "> \u001b[0;32m/Users/vovapasko/hobby/programmingbitcoin/code-ch05/tx.py\u001b[0m(125)\u001b[0;36mparse\u001b[0;34m()\u001b[0m\n",
      "\u001b[0;32m    123 \u001b[0;31m        \u001b[0;32mreturn\u001b[0m \u001b[0mcls\u001b[0m\u001b[0;34m(\u001b[0m\u001b[0mversion\u001b[0m\u001b[0;34m,\u001b[0m \u001b[0mtxins\u001b[0m\u001b[0;34m,\u001b[0m \u001b[0;32mNone\u001b[0m\u001b[0;34m,\u001b[0m \u001b[0;32mNone\u001b[0m\u001b[0;34m)\u001b[0m\u001b[0;34m\u001b[0m\u001b[0;34m\u001b[0m\u001b[0m\n",
      "\u001b[0m\u001b[0;32m    124 \u001b[0;31m\u001b[0;34m\u001b[0m\u001b[0m\n",
      "\u001b[0m\u001b[0;32m--> 125 \u001b[0;31m    \u001b[0;31m# tag::source6[]\u001b[0m\u001b[0;34m\u001b[0m\u001b[0;34m\u001b[0m\u001b[0;34m\u001b[0m\u001b[0m\n",
      "\u001b[0m\u001b[0;32m    126 \u001b[0;31m    \u001b[0;32mdef\u001b[0m \u001b[0mserialize\u001b[0m\u001b[0;34m(\u001b[0m\u001b[0mself\u001b[0m\u001b[0;34m)\u001b[0m\u001b[0;34m:\u001b[0m\u001b[0;34m\u001b[0m\u001b[0;34m\u001b[0m\u001b[0m\n",
      "\u001b[0m\u001b[0;32m    127 \u001b[0;31m        \u001b[0;34m'''Returns the byte serialization of the transaction'''\u001b[0m\u001b[0;34m\u001b[0m\u001b[0;34m\u001b[0m\u001b[0m\n",
      "\u001b[0m\n",
      "ipdb> exit()\n"
     ]
    },
    {
     "name": "stderr",
     "output_type": "stream",
     "text": [
      "E\n",
      "======================================================================\n",
      "ERROR: setUpClass (tx.TxTest)\n",
      "----------------------------------------------------------------------\n",
      "Traceback (most recent call last):\n",
      "  File \"/Users/vovapasko/hobby/programmingbitcoin/code-ch05/tx.py\", line 254, in setUpClass\n",
      "    def test_parse_version(self):\n",
      "  File \"/Users/vovapasko/hobby/programmingbitcoin/code-ch05/tx.py\", line 61, in load_cache\n",
      "    tx = Tx.parse(BytesIO(raw))\n",
      "  File \"/Users/vovapasko/hobby/programmingbitcoin/code-ch05/tx.py\", line 125, in parse\n",
      "    # tag::source6[]\n",
      "  File \"/Users/vovapasko/hobby/programmingbitcoin/code-ch05/tx.py\", line 125, in parse\n",
      "    # tag::source6[]\n",
      "  File \"/Library/Developer/CommandLineTools/Library/Frameworks/Python3.framework/Versions/3.8/lib/python3.8/bdb.py\", line 88, in trace_dispatch\n",
      "    return self.dispatch_line(frame)\n",
      "  File \"/Library/Developer/CommandLineTools/Library/Frameworks/Python3.framework/Versions/3.8/lib/python3.8/bdb.py\", line 113, in dispatch_line\n",
      "    if self.quitting: raise BdbQuit\n",
      "bdb.BdbQuit\n",
      "\n",
      "----------------------------------------------------------------------\n",
      "Ran 0 tests in 139.692s\n",
      "\n",
      "FAILED (errors=1)\n"
     ]
    }
   ],
   "source": [
    "# Exercise 2\n",
    "\n",
    "reload(tx)\n",
    "run(tx.TxTest(\"test_parse_inputs\"))"
   ]
  },
  {
   "cell_type": "markdown",
   "metadata": {},
   "source": [
    "### Exercise 3\n",
    "\n",
    "Write the outputs parsing part of the `parse` method in `Tx` and the `parse` method for `TxOut`.\n",
    "\n",
    "#### Make [this test](/edit/code-ch05/tx.py) pass: `tx.py:TxTest:test_parse_outputs`"
   ]
  },
  {
   "cell_type": "code",
   "execution_count": null,
   "metadata": {},
   "outputs": [],
   "source": [
    "# Exercise 3\n",
    "\n",
    "reload(tx)\n",
    "run(tx.TxTest(\"test_parse_outputs\"))"
   ]
  },
  {
   "cell_type": "markdown",
   "metadata": {},
   "source": [
    "### Exercise 4\n",
    "\n",
    "Write the Locktime parsing part of the `parse` method in `Tx`.\n",
    "\n",
    "#### Make [this test](/edit/code-ch05/tx.py) pass: `tx.py:TxTest:test_parse_locktime`"
   ]
  },
  {
   "cell_type": "code",
   "execution_count": null,
   "metadata": {},
   "outputs": [],
   "source": [
    "# Exercise 4\n",
    "\n",
    "reload(tx)\n",
    "run(tx.TxTest(\"test_parse_locktime\"))"
   ]
  },
  {
   "cell_type": "markdown",
   "metadata": {},
   "source": [
    "### Exercise 5\n",
    "\n",
    "What is the ScriptSig from the second input, ScriptPubKey from the first output and the amount of the second output for this transaction?\n",
    "\n",
    "```\n",
    "010000000456919960ac691763688d3d3bcea9ad6ecaf875df5339e148a1fc61c6ed7a069e0100\n",
    "00006a47304402204585bcdef85e6b1c6af5c2669d4830ff86e42dd205c0e089bc2a821657e951\n",
    "c002201024a10366077f87d6bce1f7100ad8cfa8a064b39d4e8fe4ea13a7b71aa8180f012102f0\n",
    "da57e85eec2934a82a585ea337ce2f4998b50ae699dd79f5880e253dafafb7feffffffeb8f51f4\n",
    "038dc17e6313cf831d4f02281c2a468bde0fafd37f1bf882729e7fd3000000006a473044022078\n",
    "99531a52d59a6de200179928ca900254a36b8dff8bb75f5f5d71b1cdc26125022008b422690b84\n",
    "61cb52c3cc30330b23d574351872b7c361e9aae3649071c1a7160121035d5c93d9ac96881f19ba\n",
    "1f686f15f009ded7c62efe85a872e6a19b43c15a2937feffffff567bf40595119d1bb8a3037c35\n",
    "6efd56170b64cbcc160fb028fa10704b45d775000000006a47304402204c7c7818424c7f7911da\n",
    "6cddc59655a70af1cb5eaf17c69dadbfc74ffa0b662f02207599e08bc8023693ad4e9527dc42c3\n",
    "4210f7a7d1d1ddfc8492b654a11e7620a0012102158b46fbdff65d0172b7989aec8850aa0dae49\n",
    "abfb84c81ae6e5b251a58ace5cfeffffffd63a5e6c16e620f86f375925b21cabaf736c779f88fd\n",
    "04dcad51d26690f7f345010000006a47304402200633ea0d3314bea0d95b3cd8dadb2ef79ea833\n",
    "1ffe1e61f762c0f6daea0fabde022029f23b3e9c30f080446150b23852028751635dcee2be669c\n",
    "2a1686a4b5edf304012103ffd6f4a67e94aba353a00882e563ff2722eb4cff0ad6006e86ee20df\n",
    "e7520d55feffffff0251430f00000000001976a914ab0c0b2e98b1ab6dbf67d4750b0a56244948\n",
    "a87988ac005a6202000000001976a9143c82d7df364eb6c75be8c80df2b3eda8db57397088ac46\n",
    "430600\n",
    "```"
   ]
  },
  {
   "cell_type": "code",
   "execution_count": null,
   "metadata": {},
   "outputs": [],
   "source": [
    "# Exercise 5\n",
    "\n",
    "from io import BytesIO\n",
    "from tx import Tx\n",
    "\n",
    "hex_transaction = '010000000456919960ac691763688d3d3bcea9ad6ecaf875df5339e148a1fc61c6ed7a069e010000006a47304402204585bcdef85e6b1c6af5c2669d4830ff86e42dd205c0e089bc2a821657e951c002201024a10366077f87d6bce1f7100ad8cfa8a064b39d4e8fe4ea13a7b71aa8180f012102f0da57e85eec2934a82a585ea337ce2f4998b50ae699dd79f5880e253dafafb7feffffffeb8f51f4038dc17e6313cf831d4f02281c2a468bde0fafd37f1bf882729e7fd3000000006a47304402207899531a52d59a6de200179928ca900254a36b8dff8bb75f5f5d71b1cdc26125022008b422690b8461cb52c3cc30330b23d574351872b7c361e9aae3649071c1a7160121035d5c93d9ac96881f19ba1f686f15f009ded7c62efe85a872e6a19b43c15a2937feffffff567bf40595119d1bb8a3037c356efd56170b64cbcc160fb028fa10704b45d775000000006a47304402204c7c7818424c7f7911da6cddc59655a70af1cb5eaf17c69dadbfc74ffa0b662f02207599e08bc8023693ad4e9527dc42c34210f7a7d1d1ddfc8492b654a11e7620a0012102158b46fbdff65d0172b7989aec8850aa0dae49abfb84c81ae6e5b251a58ace5cfeffffffd63a5e6c16e620f86f375925b21cabaf736c779f88fd04dcad51d26690f7f345010000006a47304402200633ea0d3314bea0d95b3cd8dadb2ef79ea8331ffe1e61f762c0f6daea0fabde022029f23b3e9c30f080446150b23852028751635dcee2be669c2a1686a4b5edf304012103ffd6f4a67e94aba353a00882e563ff2722eb4cff0ad6006e86ee20dfe7520d55feffffff0251430f00000000001976a914ab0c0b2e98b1ab6dbf67d4750b0a56244948a87988ac005a6202000000001976a9143c82d7df364eb6c75be8c80df2b3eda8db57397088ac46430600'\n",
    "\n",
    "# convert the hex_transaction to binary\n",
    "# create a stream using BytesIO\n",
    "# use Tx.parse to get the transaction object.\n",
    "# ScriptSig from second input\n",
    "# ScriptPubKey from first output\n",
    "# Amount from second output"
   ]
  },
  {
   "cell_type": "markdown",
   "metadata": {},
   "source": [
    "### Exercise 6\n",
    "\n",
    "Write the `fee` method for the `Tx` class.\n",
    "\n",
    "#### Make [this test](/edit/code-ch05/tx.py) pass: `tx.py:TxTest:test_fee`"
   ]
  },
  {
   "cell_type": "code",
   "execution_count": null,
   "metadata": {},
   "outputs": [],
   "source": [
    "# Exercise 6\n",
    "\n",
    "reload(tx)\n",
    "run(tx.TxTest(\"test_fee\"))"
   ]
  }
 ],
 "metadata": {
  "kernelspec": {
   "display_name": "Python 3",
   "language": "python",
   "name": "python3"
  },
  "language_info": {
   "codemirror_mode": {
    "name": "ipython",
    "version": 3
   },
   "file_extension": ".py",
   "mimetype": "text/x-python",
   "name": "python",
   "nbconvert_exporter": "python",
   "pygments_lexer": "ipython3",
   "version": "3.8.2"
  }
 },
 "nbformat": 4,
 "nbformat_minor": 2
}
